S0200000626C696E6B5F6B65726E656C5F6672656572746F735F6877352E733337A8
S3150800000000040020D1040008B7460008B7460008D7
S31508000010B7460008B7460008B7460008B7460008BE
S31508000020B7460008B7460008B74600080969000839
S31508000030B7460008B7460008AD680008A16A000878
S31508000040B7460008B7460008B7460008B74600088E
S31508000050B7460008B7460008B7460008B74600087E
S31508000060B7460008B7460008B7460008B74600086E
S31508000070B7460008B7460008B7460008B74600085E
S31508000080B7460008B7460008B7460008B74600084E
S31508000090B7460008090E0008B7460008B746000824
S315080000A0B7460008F10A0008D10A0008B746000852
S315080000B0B7460008B7460008B7460008B74600081E
S315080000C0B7460008B7460008B7460008B74600080E
S315080000D0B7460008B7460008B7460008B7460008FE
S315080000E0B7460008B7460008B7460008B7460008EE
S315080000F0B7460008B7460008B7460008B7460008DE
S31508000100B7460008B7460008B7460008B7460008CD
S31508000110B7460008B7460008B7460008B7460008BD
S31508000120B7460008B7460008B7460008B7460008AD
S31508000130B7460008B7460008B7460008B74600089D
S31508000140B7460008B7460008B7460008436A0008DD
S31508000150B7460008B7460008B7460008B74600087D
S31508000160B7460008B7460008B7460008B74600086D
S315080001700348044B834202D0034B03B11847704728
S315080001801C1B00201C1B002000000000064B074912
S31508000190C91A891048BF0131491003D0044B0BB165
S315080001A001481847704700BF1C1B00201C1B002075
S315080001B00000000010B5064C237843B9FFF7D8FFB6
S315080001C0044B13B10448AFF300800123237010BD1C
S315080001D008190020000000004879000808B5054BFA
S315080001E01BB105490548AFF30080BDE80840FFF795
S315080001F0CDBF00BF000000000004002048790008B9
S31508000200A3F5803A704700BF174B002B08BF134B66
S315080002109D46FFF7F5FF00218B460F461348144A03
S31508000220121A04F0BDFD0E4B002B00D098470D4B5B
S31508000230002B00D098470020002104000D000D482F
S31508000240002802D00C48AFF3008004F0DBF9200048
S31508000250290004F063FD04F0C3F900BF000008009C
S315080002600000000000000000000400200004002038
S31508000270B41900200000000000000000F0B5A1B08D
S3150800028000F002F9254C264D264E2060284604F03B
S3150800029027FAB0B1284604F023FA90BB304604F09A
S315080002A08CFA304604F08CFA78B31F49684604F095
S315080002B094FD684604F089FD69460246206801F007
S315080002C037FA1A4804F00CFAB8B1184F384604F051
S315080002D007FAE0B9164804F070FA154804F070FAFF
S315080002E0C8B11449684604F078FD684604F06DFD07
S315080002F069460246206801F01BFA642005F0A0FE54
S31508000300C4E7642005F09CFEC4E70B49CEE76420E9
S3150800031005F096FEDAE70949E4E700BFF006002093
S31508000320846E0008B46E0008386E00086C6E00080B
S315080003309C6E0008406E00083C6E0008446E00087B
S315080003401FB50B4BA02202930A4B0B4901930123BD
S315080003500A480093002305F0C5FB30B9592108481F
S3150800036005B05DF804EB04F0B4B905B05DF804FB1C
S315080003701804002070040020486E00087D0200085A
S31508000380536E000807B500F07FF8104D104C114E5B
S315080003902860012228680DF1070101F097F99DF8F8
S315080003A00730312B03D1304604F001FAF1E7322B3E
S315080003B003D1304604F0FEF9EBE7372B01D120468E
S315080003C0F2E7382BE5D12046F4E700BFCC09002038
S315080003D09C6E0008B46E00081FB50B4BA022029352
S315080003E00A4B0B49019301230A480093002305F0A1
S315080003F079FB30B95721084805B05DF804EB04F0DD
S3150800040068B905B05DF804FBF40600204C07002027
S31508000410486E0008850300085E6E000808B50448A3
S3150800042004F059F9BDE80840024804F054B900BF81
S31508000430846E00086C6E000808B5044804F0B4F928
S31508000440BDE80840024804F0AFB900BFB46E000822
S315080004509C6E000818B1034B1860002070472520D1
S31508000460704700BFD009002010B5054C0549206823
S3150800047000F0C2FF2068BDE81040FFF7EBBF00BFE1
S31508000480D81A0020B4190020014B1868704700BF1D
S31508000490D009002008B5034806F061FABDE808400F
S315080004A004F0E7B824750008014806F058BA00BFFA
S315080004B0247500080348044A0449121A921004F0E5
S315080004C0FBB800BF7001000870010008B4190020CD
S315080004D008B5154B83F30A8800F030F8FFF7EAFFF2
S315080004E0124B13498B4212D30020124B12498B42EE
S315080004F018D3FFF789FE186850F82240586840F864
S315080005002240013298688242F5D30C33EAE700228A
S31508000510F8E71C6844F8220001325C68A242F8D366
S315080005200833E4E70022F8E70000002050790008C5
S315080005305C7900085C7900085C7900084FF4804112
S31508000540124B134A70B59A60D3F88820114D42F4BD
S315080005507002C3F88820104A05F5005491664FF0DA
S31508000560FF3222660D4A62660222C3F8D020BFF324
S315080005704F8FBFF36F8F4FF44036002003F024FBF4
S315080005800020E66003F0B8FA2E6170BD00ED00E0C9
S31508000590000000080080004400900050F7FF370074
S315080005A0014B1860704700BFE01A0020054B186021
S315080005B0054B1B6F03F00703032B01D104F03CBC6A
S315080005C0704700BFE81A00200080005030B5056863
S315080005D087B0AB8804461E48ADF80C3006F0BFF964
S315080005E00022012103A800F083F80DF10B0103A8EE
S315080005F000F04AF99DF80B3083F001032B70AB79B4
S31508000600022B19D14FF0FF330022CDE904330094B1
S31508000610104B04A903A800F0FFF9049B00940133CA
S315080006200C4B0CD1042205A903A800F05FF918B1F8
S315080006306F21094804F04DF8002007B030BD0122AB
S3150800064005A903A800F052F90028F5D07E21F0E7A5
S3150800065024750008ED460008CC6E00082DE9F04127
S3150800066004460C254FF00108124E0CB314F0010095
S315080006700BD0002024F0010405FB00625768002F08
S31508000680F3D09168C0B2B847EFE722460130202878
S315080006904FEA520201D0D307F8D508FA00F20F281C
S315080006A024EA0204E8D9103805FB0062B432E5E70B
S315080006B0BDE8F081380A002008B50C4806F04FF965
S315080006C0192003F033FA28B1192003F07DFA19200E
S315080006D003F012FA1A2003F029FA28B11A2003F0B7
S315080006E073FA1A2003F008FA002008BD24750008DA
S315080006F02DE9F0410E469046044638B993211A482A
S3150800070003F0E7FF22252846BDE8F0810F290CD81B
S31508000710037883B1012B03D0022B0CD0032B04D111
S315080007203F236278D340DB0708D497210E4803F0AD
S31508000730D0FF2125E7E740F2FF33F2E70B4BD3F86A
S3150800074010532DB19B21084803F0C3FF0225DAE7B1
S3150800075006F0FAF8074642462046314602F050FEB1
S31508000760384606F0ECF8CEE7306F000800C00350B4
S3150800077038B5044628B91348E42103F0AAFF222015
S3150800078038BD037883B1012B03D0022B0CD0032B81
S3150800079004D13F236278D340DB0708D40948E8210F
S315080007A003F097FF2120EBE740F2FF33F2E706F06C
S315080007B0CBF80546204604F015FC284606F0BFF897
S315080007C00020DDE7306F000838B5044628B914481C
S315080007D0FC2103F07EFF222038BD03788BB1012B64
S315080007E003D0022B0DD0032B04D13F236278D340CC
S315080007F0DB0709D40A484FF4807103F06AFF212009
S31508000800EAE740F2FF33F1E706F09EF80546204690
S3150800081002F01AFD284606F092F80020DCE700BF31
S31508000820306F000870B50D46044600B131B9154859
S3150800083040F22D1103F04DFF222070BD03788BB1D5
S31508000840012B03D0022B0DD0032B04D13F23627852
S31508000850D340DB0709D40B4840F2311103F039FFC6
S315080008602120EAE740F2FF33F1E706F06DF8064685
S31508000870204602F03FFD2870304606F060F800205A
S31508000880DBE700BF306F000870B50D46044600B1BF
S3150800089031B915484FF4A37103F01BFF222070BD30
S315080008A003788BB1012B03D0022B0DD0032B04D177
S315080008B03F236278D340DB0709D40B484FF4A57170
S315080008C003F007FF2120EAE740F2FF33F1E706F0DD
S315080008D03BF80646204602F0E1FC2870304606F052
S315080008E02EF80020DBE700BF306F00082DE9F04145
S315080008F00D4616469846044600B139B92F484FF4B6
S31508000900E07103F0E6FE2220BDE8F081027872B1BC
S31508000910012A19D0022A0AD0032A15D0FF2A0CD098
S315080009204FF4E271254803F0D4FE2120ECE740F2AB
S31508000930FF336278D340DA07F2D5022E07D9042EA0
S3150800094005D04FF4E471EDE73F236278F2E705F04E
S31508000950FBFF23780746FF2B05D032462046296839
S3150800096002F0B6FD28602B68013309D12378FF2BE6
S3150800097006D1134B6078D3F8241404F0D8F828600D
S3150800098029684B1C14D00C230E4A03FB0122069B34
S31508000990C2F8048093602378FF2B04D001230A4A07
S315080009A08B40C2F82434384605F0C9FF0020ABE76F
S315080009B0384605F0C4FF2D20A6E700BF306F0008B3
S315080009C000C00350380A002000D003500F2810B585
S315080009D0044606D90D4840F2F11103F07AFE2120AB
S315080009E010BD05F0B1FF0123094AA340C2F820341F
S315080009F0C2F824340C22074B02FB04330024C3E953
S31508000A00014405F09CFF2046EAE700BF306F000866
S31508000A1000E00350380A00202DE9F0410D469046C3
S31508000A201F46044600B139B926484FF40B7103F046
S31508000A3050FE2220BDE8F081017871B1012938D035
S31508000A4002290AD0032934D0FF290CD01D4840F2C8
S31508000A50312103F03EFE2120ECE740F2FF336278B5
S31508000A60D340DA07F2D505F06FFF23780646FF2B49
S31508000A7005D042462046296802F01AFE28602A68F0
S31508000A80531C19D00C23104903FB0211069BC1F80D
S31508000A90B870C1F8BC302378FF2B05D0012310327B
S31508000AA093400A4AC2F82434304605F048FF00202D
S31508000AB0C0E73F236278D3E7304605F040FF2D2094
S31508000AC0B8E700BF306F0008380A002000D003508E
S31508000AD008B502F03BFC054B00F0553020F05020DD
S31508000AE0C3F82004BDE80840FFF7B8BD00E003508E
S31508000AF008B502F02BFC054B00F0AA3020F0A02028
S31508000B00C3F82004BDE80840FFF7A8BD00E003507D
S31508000B1013B504460A4805F022FFA2780421B2FA62
S31508000B2082F2237852098DF8043063780DEB0100C0
S31508000B308DF80530FFF7DCFD002002B010BD00BFC0
S31508000B40247500082DE9F04F9A46564B85B01B7858
S31508000B5006460F461546DDF83C909DF844B0DDF88C
S31508000B605080002B00F09780072A00F296800E9B93
S31508000B70002B00F09280B9F1000F00F08E80129BD6
S31508000B80B3F5006F00F38980012803D1109B002B71
S31508000B9000F08380444B03EB05131B7B002B7ED0B0
S31508000BA0424C10220021684604F0FAF804EB45147A
S31508000BB01022A7BB3946204604F0F2F843F2100388
S31508000BC06380BBF1000F03D1E37843F00303E370BE
S31508000BD0364A0E9B02EB451CCCE90193129B690130
S31508000BE0581E9DF84C30C0F30A0003F003039B0619
S31508000BF043EA001E53582E48012E00EA03004EEA27
S31508000C000003CDF800A0535017D0B8F1000F2ED12D
S31508000C109CF8023068F304138CF8023027E00021B0
S31508000C20204604F0BDF84FF444736380BBF1000F0F
S31508000C30CED1E37843F03003C9E713230CF1100E45
S31508000C40CCF80C309CE80F008EE80F006FF003011B
S31508000C50DCF81C20109B61F39F02012FCCF81C20A6
S31508000C60CCF8143003D1CCF81890CCF8043000270F
S31508000C700D4A290102EB051342F80180159A284608
S31508000C805A60694622469F605E7302F03FF938460D
S31508000C9005B0BDE8F08F0748FAE70748F8E70748C0
S31508000CA0F6E700BF09190020A00C0020A00B0020C1
S31508000CB00F80FFF3028000F0018000F0078000F04B
S31508000CC038B5124B05461B78DBB1E0B105F03CFEA2
S31508000CD00F4A00231146147B54B92B6001251A01CB
S31508000CE001EB03131D738C5005F029FE204638BD11
S31508000CF00133082B02F11002EDD105F020FE05485C
S31508000D00F5E70548F3E70548F1E700BF09190020AC
S31508000D10A00C0020048000F0028000F0018000F0A2
S31508000D20154B13B51868002301908DF8043005F0AB
S31508000D300BFE124B1C7824B105F001FE104802B0D8
S31508000D4010BD01221A7005F0FAFD0E4B01A81C739E
S31508000D501C7783F82C4083F83C4083F84C4083F892
S31508000D605C4083F86C4083F87C4008238DF8073094
S31508000D7002F084F82046E2E7896F00080919002086
S31508000D80038000F0A00C00200A4A08B512785AB170
S31508000D9007280BD8084A02EB00131B7B43B1002136
S31508000DA002F04CF8002008BD0448FCE70448FAE7BE
S31508000DB00448F8E709190020A00C0020028000F07A
S31508000DC0018000F0078000F00A4A08B512785AB187
S31508000DD007280BD8084A02EB00131B7B43B10121F5
S31508000DE002F02CF8002008BD0448FCE70448FAE79E
S31508000DF00448F8E709190020A00C0020028000F03A
S31508000E00018000F0078000F0184B2DE9F0411F6DB6
S31508000E105B6D1F4000D5FEE701260025144CDFF860
S31508000E205880374218D02368C8F85060A3B1A16823
S31508000E30284601316268A1609847637B012B0BD174
S31508000E4050B90C4B03EB45131A7B60F341021A7336
S31508000E501A7F60F341021A770135082D4FEA4606D4
S31508000E6004F11004DDD1BDE8F08100BF0000045094
S31508000E70A00C0020A00B00200020045038B5044622
S31508000E800D4605F061FDA3889BB223B92B6005F0DA
S31508000E9056FD064838BD142263889BB202FB0344FC
S31508000EA008342C6005F04BFD0020F3E70B7000F0CA
S31508000EB038B141B1013AB2F5006F044838BF002095
S31508000EC07047034870470148704700BF037000F039
S31508000ED0027000F0104930B50A78104B2AB9C3E9F8
S31508000EE00022C3E9022201220A700C4900220C469C
S31508000EF054F8045B854208D00132042AF8D100224E
S31508000F0051F8044B1CB943F82200002030BD0132C9
S31508000F10042AF5D10248F9E70A190020200D002015
S31508000F20027000F0002313B51D4A52F8044B94F8DA
S31508000F30211081420ED00133042BF6D102B010BD28
S31508000F400028FBD19DF80730002BF7D0A068FFF7E3
S31508000F501BFFF3E794F83530022BEFD1204603F058
S31508000F6013FD637E2076022BE8D194F8323003F025
S31508000F70FF02002BE2D1A0680DF107018DF80720CA
S31508000F8003F0FAFF237E1BB194F83330002BD7D039
S31508000F900023A06884F83330FFF716FFCEE700BFBA
S31508000FA0200D002010B50446FFF7BAFE002104F113
S31508000FB00800FFF785FE014608B1044810BD04F194
S31508000FC00C00FFF77DFE0028F8D0F6E70E7000F05B
S31508000FD0F8B5044616460F4605F0B6FCA388E2881F
S31508000FE09BB29A42054605D80023336005F0A7FC54
S31508000FF01748F8BD1422238807F1100C9BB202FB90
S3150800100003433A460833174603CF674518605960C5
S315080010103A4603F10803F6D1142238681860238883
S3150800102028469BB202FB0343083333602388E288D1
S315080010309BB20133B3FBF2F102FB11339BB223805F
S31508001040A38801339BB2A38005F079FC0020D0E782
S315080010500A7000F07FB5012380F8303090F83630FA
S315080010609BB903682433826B013282630C4A04906D
S315080010700392002202924A680192012200920A68AB
S315080010804169C06803F0FFFB07E0022B02D1036841
S315080010903C33E8E7002380F8303007B05DF804FBFE
S315080010A0B91500087FB5012380F8313090F836303D
S315080010B09BB902683C32836B013383630C4B049003
S315080010C00393002302934B680193012300930B6853
S315080010D00169806803F0BDFB07E0022B02D10268B4
S315080010E04432E8E7002380F8313007B05DF804FBA6
S315080010F0B911000890F8363063B9012203685A61BD
S315080011009A69D207FCD504210379084AB9335B01E9
S31508001110D1507047022B07D10068836C9B074CBFE0
S315080011200521092101F054BE704700BF00C00350D5
S3150800113090F8363053B9042103790A4A03F2391371
S315080011405B01D150022203685A617047022B07D10E
S315080011500068816C11F0020118BF062101F038BE43
S31508001160704700BF00C0035010B590F836300446EB
S3150800117063B9042203685A619A699207FCD52379F0
S315080011800C4AB9335B011021995010BD022BFCD1D2
S315080011900068836CDB074CBF0521062101F018FEA9
S315080011A0237941F294425B0103F1A04303F57033BE
S315080011B0E9E700BF00C003502DE9F341D06A01A951
S315080011C01446FFF75BFE0546204603F0FBFE194B67
S315080011D09D4228D0019D25B940F2A531164803F055
S315080011E078FA00272F61AF6005F0AEFBD5F80C80C2
S315080011F00646B8F1000F04D0D5E900233946204643
S31508001200C047E06A01A903F0D8FBE06A83889BB26D
S315080012106BB101A9FFF732FE20460199FFF742FF9D
S31508001220304605F08CFB012002B0BDE8F08184F859
S315080012303130F5E70B7000F08D6F00082DE9F041AD
S3150800124004461746FFF734FE88460646E8B91520D1
S3150800125002F084FC0546E26A93889BB213B194F8BF
S315080012603230ABB194F83630BBB923689D6915F0B6
S3150800127002052CD0012384F834304744B845206849
S3150800128049D183699B06FCD56DB33046BDE8F0812C
S31508001290002DE1D0FFF7B8FDDDE7022B12D1236858
S315080012A09D6C15F0020512D0012384F834304744AA
S315080012B04745206836D142F22002836C32EA03039E
S315080012C0FBD1E1E740F697111E4803F002FA2046E3
S315080012D0FFF74AFF012394F8365084F83430002D7E
S315080012E0CBD0022D1CD094F8363003B3022BCCD1C8
S315080012F02068816C11F0010118BF092101F068FD11
S3150800130042F29442102123795B0103F1A04303F5CD
S3150800131070339950B9E718F8011B03F0F4FBADE7F1
S315080013200025C4E718F8011B03F0E8FBC0E7102105
S315080013302379054A03F239135B01D1500822236841
S315080013405A61A2E78D6F000800C0035010B5044625
S3150800135080B190F832302BB903F016FB10B9A068AB
S31508001360FFF712FD002094F832300133DBB284F81F
S31508001370323010BD0048FCE7027000F010B5044694
S31508001380A0B190F832309BB190F83230012B05D1DC
S3150800139003F0FAFA10B9A068FFF716FD002094F8D2
S315080013A03230013BDBB284F8323010BD0148FCE72D
S315080013B00148FAE7027000F0057000F030B5002524
S315080013C0437F85B08DF8083090F821300446042212
S315080013D08DF80930039303A9064B009502A8FFF779
S315080013E085FA4FF4007320462383A57603F008FB9D
S315080013F005B030BD250F00082DE9F0410546664FBA
S3150800140088B001AE0C460FCF0FC697E8070086E8EE
S315080014100700002D00F0BE8024B9604E304608B0A3
S31508001420BDE8F08164220021284603F0B9FC28466D
S31508001430FFF750FD06460028F0D1237D85F83530A4
S31508001440236885F836002B60227B2A71544A616826
S3150800145093422966E1D1534B534A6B624FF480237A
S31508001460C5E90423D4E90723AA6210805080908036
S3150800147085F83000EB62188058809880E38985F8F3
S315080014803100ADF81430238A85F83300ADF81230F0
S31508001490A37C46488DF81030E37C03918DF816300E
S315080014A005238DF8113005F05AFA6B6A404F986893
S315080014B005F055FA206801A98DF8046001F05CFE74
S315080014C01421237B03F139025201B950267AA07AF6
S315080014D007EB431346EA0042C3F83827617AE27AF3
S315080014E041EA024CC3F830C7EE76E877297785F8E3
S315080014F02020637D01216B77A37D284685F821305E
S31508001500E37DAB77237E85F8223003F0D6F90646CD
S31508001510002883D105F018FA237D8046032B33D1A2
S315080015200221227B02F1B9035B01F950042107EB82
S31508001530421741F22C72236803F58053D965217E40
S31508001540E37D43EA0143BB50A27D637D43EA024340
S3150800155041F22872BB504FF0FF32206800F5005365
S315080015609A64237D032B0CBF0521042101F0BAFDE3
S315080015704FF44062236828465A61FFF713FD064672
S31508001580404605F0DCF949E7022BE4D12846FFF787
S3150800159015FFE0E7074E41E7E86F0008037000F023
S315080015A000C00550287500080200040024750008CC
S315080015B000C00350027000F0F7B5906A01A91446FE
S315080015C0FFF75CFC0546204603F0FCFC3B4B9D42BE
S315080015D036D0019D25B940F2D121394803F079F872
S315080015E094F83610002939D123689A6C12F40072DF
S315080015F029D0344AA9602A614FF4007203F50053D2
S315080016009A6405F0A1F9EF68064637B16A68AB68CF
S315080016102046D31A29692A68B847A06A01A903F09F
S31508001620CCF9A06A8588ADB2002D37D001A9FFF79D
S3150800163025FC20460199FFF70DFD304605F07FF998
S31508001640012003B0F0BD996CC80523D51E49AA60D0
S3150800165029614FF4807203F50053D1E7022919D1A5
S315080016602368DA6C12F4007209D0164A03F500539F
S315080016702A610022AA604FF40072DA64C1E7D96CC5
S31508001680C90507D51049AA6029614FF4807203F588
S315080016900053F2E700232B61AB60B2E70123204633
S315080016A0237603F0ADF994F8353084F83050032BDF
S315080016B0C3D02046FFF73CFDBFE700BF0B7000F024
S315080016C08D6F00080D7000F00C7000F030B587B013
S315080016D004461346FFF7ECFB30BBCDE90113039331
S315080016E0124B04906A46A06A01A90593FFF770FC9D
S315080016F0D0B9A26A93889BB2012BFBD82046FFF784
S31508001700F9FC94F83530032B04D0002320462376C1
S3150800171003F076F9009D20462946FFF79BFC94F8CE
S315080017203030002BFBD1286907B030BD017000F0BE
S3150800173030B587B004461346FFF7BAFB40BBCDE980
S3150800174001130393194B0490059394F836300BBB99
S3150800175023689B6903F0020313B92046FFF704FDCB
S315080017606A46E06A01A9FFF733FC88B9E26A9388FA
S315080017709BB2012BFBD8009D20462946FFF792FC19
S31508001780012384F8343094F83130002BFBD12869D2
S3150800179007B030BD022B02D123689B6CDAE740F60E
S315080017A0FB21034802F095FFD7E700BF017000F060
S315080017B08D6F0008044BD3F88420D206FBD4D3F8E7
S315080017C08400C0F3811070470040005038B5104BB4
S315080017D00546D3F800310C4603F00303022B0BD061
S315080017E0032B0DD0012B0FD103F040FB032305B1CA
S315080017F0286004B1236038BD03F08AFB0923F6E7A5
S3150800180003F03AFB0823F2E701230020EFE700BFC5
S315080018100080005038B5104B0546D3F840310C46C9
S3150800182003F00303022B0BD0032B0DD0012B0FD192
S3150800183005F076F80A2305B1286004B1236038BD9F
S3150800184003F066FB0923F6E705F06DF80C23F2E7CB
S3150800185001230020EFE700BF0080005038B5104B89
S315080018600546D3F860310C4603F00303022B0BD070
S31508001870032B0DD0012B0FD105F052F80A2305B121
S31508001880286004B1236038BD03F042FB0923F6E75C
S3150800189005F049F80C23F2E701230020EFE700BF23
S315080018A00080005038B5104B0546D3F840320C4638
S315080018B003F00303022B0BD0032B0DD0012B0FD102
S315080018C005F02EF80A2305B1286004B1236038BD57
S315080018D003F01EFB0923F6E705F025F80C23F2E7CB
S315080018E001230020EFE700BF0080005038B5124BF7
S315080018F00546D3F880300C4603F00303022B0BD0C1
S31508001900032B0DD0012B0FD103F076FA0E2305B168
S31508001910286004B1236038BD03F0B2FA0723F6E75E
S3150800192003F064FA0623F2E7044841F2142102F0B0
S31508001930D0FE00231846EAE700800050247000080D
S3150800194038B51A4B0546D3F820010C4600F00700B7
S31508001950062821D8DFE800F028040C1410181C000B
S3150800196003F044FA052305B1286004B1236038BDA5
S3150800197003F07CFA0323F6E703F082FA0723F2E77B
S3150800198003F070FA0223EEE703F030FA0623EAE7DB
S3150800199003F06CFA0423E6E7054841F2912102F0C8
S315080019A098FE00231846DEE70123DCE70080005096
S315080019B02470000838B5194B0546D3F828310C466B
S315080019C003F00703013B052B20D8DFE803F00313D8
S315080019D01B0F0B1703F00AFA052305B1286004B19B
S315080019E0236038BD03F002FA0623F6E703F048FA47
S315080019F00723F2E703F03AFA0323EEE703F036FA91
S31508001A000423EAE703F02EFA0223E6E7044841F244
S31508001A10990102F05EFE00231846DEE700800050BA
S31508001A2024700008002337B50193194B0546D3F8EF
S31508001A3020320C4603F00703042B1FD8DFE803F017
S31508001A4025030F141900002101A8FFF7B3FF12237D
S31508001A500DB1019A2A6004B1236003B030BD03F0CA
S31508001A600FFA07230190F3E704F05AFF0A230190BF
S31508001A70EEE703F04DFA09230190E9E741F2560132
S31508001A80044802F026FE0023E2E70123E0E700BF50
S31508001A900080005024700008F7B50027144B019702
S31508001AA0D3F88041064604F00304022C0D4614D0F0
S31508001AB0032C0DD0012C14D1394601A8FFF740FF9D
S31508001AC010240EB1019B336005B12C6003B0F0BD44
S31508001AD003F0D6F907240190F3E703F0C3F9019060
S31508001AE0EFE741F2E631034802F0F3FD3C46E8E74A
S31508001AF0008000502470000838B5164B0546D3F808
S31508001B0000020C4600F00700042819D8DFE800F0A8
S31508001B1020030B0F130004F003FF0A2305B1286006
S31508001B2004B1236038BD03F0F3F90923F6E704F09E
S31508001B30FAFE0C23F2E703F07FF90F23800AEDE79C
S31508001B40054841F2A44102F0C4FD00231846E5E722
S31508001B500123E3E7008000502470000838B5164BCF
S31508001B600546D3F808020C4600F00700042819D8E1
S31508001B70DFE800F020030B0F130004F0D1FE0A2360
S31508001B8005B1286004B1236038BD03F0C1F9092303
S31508001B90F6E704F0C8FE0C23F2E703F04DF90F232D
S31508001BA0800AEDE7054841F2DC4102F092FD002388
S31508001BB01846E5E70123E3E7008000502470000893
S31508001BC0002337B50193184B0546D3F860320C4607
S31508001BD003F00703013B032B1FD8DFE803F0020ECF
S31508001BE01914002101A8FFF7ABFE10230DB1019AC5
S31508001BF02A6004B1236003B030BD002101A8FFF7B5
S31508001C0009FE1123F2E703F03BF907230190EDE7FC
S31508001C1003F028F902230190E8E741F2FD010348A1
S31508001C2002F057FD0023E1E7008000502470000809
S31508001C30002337B50193184B0546D3F894320C4662
S31508001C4003F00703013B032B1FD8DFE803F0020E5E
S31508001C501914002101A8FFF773FE10230DB1019A8C
S31508001C602A6004B1236003B030BD002101A8FFF744
S31508001C70D1FD1123F2E703F003F907230190EDE7FD
S31508001C8003F0F0F802230190E8E741F23011034827
S31508001C9002F01FFD0023E1E70080005024700008D1
S31508001CA073B500240F4B0194D3F87032064603F03F
S31508001CB00303012B0D4607D0022B11D041F25B110D
S31508001CC0094802F006FD04E0214601A8FFF7A2FD37
S31508001CD011240EB1019B336005B12C6002B070BDB2
S31508001CE01524F6E7008000502470000808B5334B29
S31508001CF098424FD027D8324B984245D017D8314B07
S31508001D0098423ED00AD838B12F4B984239D041F282
S31508001D10BB312E4802F0DDFC002034E02C4B984203
S31508001D202FD02C4B9842F2D12B4B586E2BE02B4BD5
S31508001D3098422CD003F5371303F5D8639842E6D1B9
S31508001D40254B986F1FE0264B98422FD00CD8254B71
S31508001D50984223D0244B984224D0244B9842D6D17B
S31508001D601D4BD3F884000EE0214B984222D003F590
S31508001D70740303F510539842C9D1174BD3F898004A
S31508001D8001E0154B986D08BD134B186FFBE7124B16
S31508001D90586FF8E7104BD3F88000F4E70E4BD3F8EA
S31508001DA08800F0E70C4BD3F88C00ECE70A4BD3F825
S31508001DB09000E8E7084BD3F89400E4E780BA8C0172
S31508001DC0405DC60080841E0040420F002470000853
S31508001DD000093D00C0CF6A000080E00F0024F4002F
S31508001DE0007E560380D54302006CDC020048E801F9
S31508001DF00090D003B0F5207F10B52ED009D8B0F5E5
S31508001E00007F24D003D868B1B0F5C07F0AD000247B
S31508001E101BE0B0F5607FFAD1124BD3F88040C4F3CB
S31508001E20011412E00F4B1C6F230B13F00E0FC4F3B3
S31508001E3003340AD0072C08D00F2C06D0032C04D064
S31508001E404FF42271084802F044FC601C10BD054B93
S31508001E50D3F89040C4F30464F7E7024B1C6FC4F34D
S31508001E608024F2E700800050247000084FF4803286
S31508001E7038B5104B04469A6600200D46FFF7BAFFA0
S31508001E8041F671320C4B6043DC69DA635A6804F434
S31508001E90803422F440125DB90849884294BF002074
S31508001EA00120000502435A600CB10022DA6338BDEE
S31508001EB00349F2E70090005000000350005A6202FE
S31508001EC0002D310138B5430904460D460ED140F2BE
S31508001ED035310D4802F0FDFB002304F01F0485B1DF
S31508001EE003F580530122A2401A6038BD012B04D0A5
S31508001EF0022B04D040F24331EBE7044BEDE7044BE9
S31508001F00EBE703F50053EDE7247000086480005002
S31508001F1068800050002130B5B0F5807F85B0044652
S31508001F20CDE9001100F0D3803DD85E2833D85E286D
S31508001F3033D8DFE800F048323232323232323232C7
S31508001F403232323232323232323232323232323263
S31508001F5032323232323248AD48ADBDBDBDBDBDADFF
S31508001F60C7516EDD51ADADAD323232323232323218
S31508001F70ADADAD81E7AD3232323232323232323243
S31508001F80323232BD484848E25151EC9066C232328C
S31508001F9032323298480080286AD040F2A44160481C
S31508001FA002F097FB67E0B0F5D06F00F0A18035D856
S31508001FB0B0F5607F77D01AD8B0F5007F5ED005D827
S31508001FC0B0F5C07FE9D102F037FF53E0B0F5207FC6
S31508001FD05ED0B0F5407FE0D102F02EFF04464FF404
S31508001FE02070FFF707FFB4FBF0F4640859E0B0F57A
S31508001FF0B06F67D00AD8B0F5806F59D0B0F5A06F2A
S31508002000CBD100216846FFF70DFD34E0B0F5C06F6F
S31508002010C3D100216846FFF7FDFB2CE0B0F5106F31
S315080020206BD00ED8B0F5086F76D0B6D8B0F5E06F9D
S3150800203068D0B0F5F06FB0D100216846FFF70EFC06
S3150800204019E0B0F5406F38D00AD8B0F5206F5ED0E9
S31508002050B0F5286FA1D100216846FFF721FE0AE0F6
S31508002060B0F5486F99D100216846FFF7E1FD02E017
S3150800207002F0C2FE0090009805B030BD02F0BCFE2A
S3150800208005462046FFF7B6FEB5FBF0F50095F2E7E4
S3150800209002F0D2FE04464FF42070FFF7ABFEB4FB05
S315080020A0F0F40094E7E701A8FFF720FC019DE8E7B4
S315080020B000216846FFF744FCDDE700216846FFF784
S315080020C079FCD8E700216846FFF7E6FCD3E74FF02E
S315080020D0E02302911B695B0705D502F0ADFE02906D
S315080020E0029B0093C7E703A902A8FFF793FBF7E74C
S315080020F000216846FFF700FDBDE700216846FFF7A7
S315080021002DFDB8E700216846FFF7CCFBB3E70021B1
S315080021106846FFF755FDAEE76846FFF757FBAAE79F
S315080021202470000808B58020FFF7F4FE034B984298
S315080021309EBF4FF48032024B1A6708BD005A6202EE
S3150800214000A000501FB503460020B3F5807F01901C
S3150800215000F0C58063D85D2B54D84C2B06D82D2BA0
S3150800216046D8232B2AD840F28951A7E04D3B102B9D
S31508002170F9D801A252F823F0D522000867210008F1
S3150800218067210008672100087F22000867210008E8
S31508002190672100082F2300089D2200084322000813
S315080021A02523000867210008672100086721000821
S315080021B0672100086721000839230008243B092BFA
S315080021C0D1D801A252F823F0D5220008D52200085A
S315080021D0D5220008D5220008D52200086721000864
S315080021E0C5220008672100085F2200080B230008A3
S315080021F03D2B00F085803E2BB5D1002001A9FFF7C5
S3150800220051FB63E0802BAED14E4B1B6F03F00703E7
S31508002210013B032B50D8DFE803F04D46494BB3F595
S31508002220F06F6DD020D8B3F5B06F4BD00ED8B3F59C
S31508002230607F73D097D3B3F5806F4BD0B3F5A06F9B
S3150800224091D1002001A9FFF7EDFB3FE0B3F5D06F70
S315080022505BD0B3F5E06FD0D0B3F5C06F83D1002063
S3150800226001A9FFF7D7FA31E0B3F5206F5FD00BD895
S31508002270B3F5086F4ED0B3F5106F7FF474AF002036
S3150800228001A9FFF76BFC21E0B3F5406F4AD0B3F51F
S31508002290486F51D0B3F5286F7FF465AF002001A9C8
S315080022A0FFF7FEFC12E0052301930FE00323FBE78B
S315080022B00823F9E70223F7E740F2D641224802F05D
S315080022C008FA03E0002001A9FFF7E6FB019805B02C
S315080022D05DF804FB002001A9FFF732FBF6E74FF093
S315080022E0E02302901B695B0705D502F0A5FD0D23C7
S315080022F00393039BD8E703A902A8FFF78BFAF8E72D
S31508002300002001A9FFF7AAFAE0E7002001A9FFF7D4
S31508002310F3FBDBE701A9FFF759FAD7E701A9FFF7AE
S31508002320E5FAD3E7002001A9FFF744FBCEE7002032
S3150800233001A9FFF745FCC9E7002001A9FFF778FCCA
S31508002340C4E700BF00800050247000084FF48032B4
S31508002350074B0849586E03F580535A664B6A23F0B3
S3150800236001034B62C3035CBF034B5A66704700BF49
S315080023700080005000C0075000A0005038B5036820
S3150800238004460F2B04D940F68A317C4802F0A1F99D
S3150800239063680F2B04D940F68D31784802F099F915
S315080023A0A3680F2B04D94FF43961744802F091F9E8
S315080023B0237B0F2B04D940F69331704802F089F934
S315080023C0637B0F2B04D940F696316C4802F081F9ED
S315080023D0A37B3F2B04D940F69931684802F079F976
S315080023E0E37B3F2B04D940F69C31644802F071F92F
S315080023F02369032B04D940F69F31604802F069F936
S315080024006369032B04D940F6A2315C4802F061F9EE
S31508002410E369032B04D940F6A531584802F059F967
S315080024208020FFF78FFE032800F083804FF4801288
S31508002430534B4FF0A0615A6645F60E02514BC3F84E
S315080024408020514A91624FF4803102F580529162A0
S315080024509A6DD203FCD4996D11F08041FBD1D4E971
S315080024600002120542EA0062E07B0243207B42EA50
S315080024700042607B42EA0032A07B42EA80121A617F
S315080024809869D4E90452120642EA856200F00040CF
S315080024900243A07EE57E0243207E42EA0042607E39
S315080024A042EA00229A611A6AE06922F00F0242EAB9
S315080024B08502364D00283DD11A6294F82420996A7F
S315080024C094F82000D200294042EA40120A4394F8C0
S315080024D0211042EA011242F480329A622C49294AB2
S315080024E0936D31EA0303FBD14FF080712648816270
S315080024F01369A56823F4700343EA055313614FF083
S315080025000043836194F822300BB9224B996294F800
S3150800251023303BB94FF480321E4B9A62194A936DA9
S315080025205B00FCD494F825301BB1164B1A4AC3F845
S31508002530802038BD024342F0080202281A6208D1F8
S3150800254019614FF40852996114484FF47F4102F01B
S3150800255093FA0C4994F822308A6A94F820001B06EC
S315080025602A4043EA4013134394F8242043EAC2035B
S3150800257094F8232043EA02438B62D3E724700008C9
S31508002580009000500040005A0050005AC7FFFEFE57
S31508002590030001000060005AF1A7FFFF3440005A0B
S315080025A0014B93F9000070470E1B0020436810B5D5
S315080025B0072B044604D940F6E6512A4802F089F862
S315080025C0A368032B04D940F6E851264802F081F89F
S315080025D02378032B04D940F6EA51224802F079F809
S315080025E094F90130002B04DA40F6EC511D4802F04C
S315080025F070F84FF400011C4A637851664FF4D151C4
S31508002600022002F5B832516218494F2B48604FF044
S31508002610010028BF4F2301F5805148601169C9039D
S31508002620FCD4217843EA01235361D4E901131B0141
S3150800263043EA0123617B0B43217B43EA4103936011
S31508002640E37BA17B1B0143EA4113617C0B43217C9D
S3150800265043EA41035360A37C13B16FF4D153536229
S3150800266010BD00BF247000080090005000100250F2
S31508002670014B1880704700BF061B0020014B1880CD
S31508002680704700BF041B00204FF4800208B5184BA2
S315080026905A660223174A5360936813F48033FBD1B2
S315080026A0012822D102F0E2FB134B984215D003F51C
S315080026B0122303F5F863984213D0104B00EB8002FF
S315080026C0400AB3FBF0F3520A0A49CA620B630123B4
S315080026D04B620022074B5A6008BD45F67A13084A32
S315080026E0F2E745F61A03074AEEE75362F1E700BF39
S315080026F0009000500040025000F049026466666689
S31508002700D8B80500BBCF0500B0F5207F38B577D01F
S315080027100ED8B0F5007F61D003D890B3B0F5C07F6E
S315080027202FD04FF44671BDE838403D4801F0D1BF7F
S31508002730B0F5607FF5D13B4A4C1ED2F8FC5015F037
S3150800274080751EBFD2F8FC3023F08073C2F8FC30C7
S31508002750032C04D940F2F721314801F0BAFF324A76
S31508002760D2F8803023F0300343EA0413C2F88030ED
S3150800277035B12C4AD2F8FC3043F08073C2F8FC30ED
S3150800278038BD4C1E012C0AD9102903D8274BCB403B
S31508002790DB0704D440F2CB21214801F09AFF02F06E
S315080027A07AF902F086F94FF48031214B1E4A1967EF
S315080027B0136F23F4704343EA0433136702F03CFBB8
S315080027C00446FEF7F7FFC0F10201204602F06BF956
S315080027D000F048F8BDE83840FFF7A4BC4C1E1F2C93
S315080027E004D94FF443710E4801F073FF0E4AD2F82C
S315080027F0903023F0F85343EA0463C2F89030BFE7F9
S315080028004C1E012C04D940F21231054801F061FF33
S31508002810054A136F23F4806343EA84231367AFE7FB
S315080028202470000800ED00E000800050100101004F
S315080028300090005008B50121022000F099F94FF4E4
S315080028402070FFF7D7FA054B187002F024F902F04A
S3150800285030F94FF48032024B1A6708BD0B19002075
S315080028600090005008B54FF4C070FFF753FBBDE861
S3150800287008400449884294BF012102214FF4207080
S31508002880FFF742BF80F0FA0238B5044602F0D4FAE0
S315080028900546FEF78FFFC0F10201284602F003F94C
S315080028A00121002000F0B8F92CB1FFF7DBFFBDE8E5
S315080028B03840FFF737BC034B4FF420701978FFF701
S315080028C023FFF4E70B1900202DE9F0410546FFF731
S315080028D00DFA431E0333044604D940F6E2113B4879
S315080028E001F0F7FE4FF4C022394B5A6603F59833C8
S315080028F05A68012A04D137494A605A689207FCD4B3
S315080029008020FFF71FFC052807D102F0C4F802F063
S31508002910D0F84FF480322E4B1A672F4B24F04074B0
S315080029209D4239D02D4B9D4239D002F05FFA85423F
S31508002930064603D90121284600F06EF9284FFB68A0
S3150800294013F0060FFBD1D7F80880BC60BB6863405C
S3150800295013F4F81F26D12846FDF722FE8020FFF73C
S31508002960F1FB052814D102F067FAA842044604D9F7
S3150800297040F63B21154801F0ACFEFEF71BFFC0F1FF
S315080029800201204602F08FF8FFF76CFFFFF7CAFB3B
S31508002990AE4213D2BDE8F08144F00074C5E744F0B6
S315080029A08074C2E740F62A21084801F092FE80208A
S315080029B0C7F80880FFF7C6FB052805D0BDE8F04133
S315080029C00121002000F028B93546CCE7247000081C
S315080029D00090005000E0015040420F0080841E0025
S315080029E0000001504E4B70B59842054673D041D849
S315080029F0A3F5B703A3F55863984265D033D8494B76
S31508002A00494E984251D017D8002877D041F2DE11A6
S31508002A10464801F05EFE40F68671444801F059FECC
S31508002A204FF40022404B5A663E4B9D4276D0002416
S31508002A303F4A954236D05DE03D4B984227D03D4B04
S31508002A409842E3D13C4BD3F8A040621E033224F0EF
S31508002A5040744CD940F68671344801F03AFE4FF47A
S31508002A6000237366E4E7354B9842CFD1324BD3F84F
S31508002A70BC402CE0324B984231D0324B984232D08F
S31508002A80314B9842C2D12C4BD3F8C8401FE02A4B91
S31508002A90D3F8A040621E033224F04074DAD84FF40B
S31508002AA00023736644F0807424E0234BD3F8A040D7
S31508002AB0621E033224F040742AD84FF4002373664A
S31508002AC0234643F0007415E01B4BD3F8B840621E4A
S31508002AD0154E0332BBE7184BD3F8C040F7E7164B41
S31508002AE0D3F8CC40F3E7144BD3F8D040EFE74FF4D4
S31508002AF0002373664FF0B442946070BD40F6867149
S31508002B000A4801F0E6FD4FF400232C467366F1E708
S31508002B1040F68671054801F0DCFDCEE70023D0E7D4
S31508002B20C0EA210140420F000090005024700008BE
S31508002B3080841E0000093D000080E00F0024F40098
S31508002B400048E801005A620280BA8C01024A536BB7
S31508002B500342FCD1704700BF00400950034A01797F
S31508002B60D36E23F030030B43D36670470040005002
S31508002B70F8B50446244BD3F88420D006FBD4D3F802
S31508002B808430C3F381139C423CD002F035F9012C02
S31508002B9005460BD11D4B984204D940F29B711C483F
S31508002BA001F097FD0121284601F07DFF03F0C3FEE1
S31508002BB04FF00072174B07465A66204601F07EFF13
S31508002BC04FF48063104E621E93403367736E9A010A
S31508002BD003D4D6F884309B060AD5384603F0A6FEF9
S31508002BE0022C0FD12846BDE8F840002101F05BBF52
S31508002BF0D6F884309906E9D540F2B371044801F055
S31508002C0068FDE3E7F8BD00BF00400050005A6202C5
S31508002C10767000080060005010B50C4608B902F03E
S31508002C20EBF8074B21461B783BB1064B984204D874
S31508002C300120BDE81040FFF79BBF0220F9E700BF5F
S31508002C400C190020005A62024FF0004238B5244B96
S31508002C50244C5A664AF6CD33656C014605F00105E3
S31508002C60236428BB0120FFF771FF6368DB0715D5CE
S31508002C701D4B586008461D4B226BD2070CD4984250
S31508002C8008D1072415B1174B194A1A6401F017FF22
S31508002C90204638BD0130EFE79842F2D00024F1E72C
S31508002CA00132236B13F0080305D08A42F8D1E8E70E
S31508002CB000220E49F5E78A42E3D020210A4A9162AA
S31508002CC00121A2F5805251600649084A886A8006A1
S31508002CD003D49342D5D00133F8E79342DDE700BF2A
S31508002CE000900050004009500060095040420F0013
S31508002CF03254FFFF4FF0004238B5164B01465A666C
S31508002D004AF6CD33144C154A656C236443780B2078
S31508002D105B0043F00103D363FFF718FF63688A7803
S31508002D2023F4F87343EA02136360CA784B7943EADB
S31508002D300223A3600A798B7943EA02232361087880
S31508002D40FFF782FFEB0744BF054B236401F0B7FE8C
S31508002D50012038BD00900050004009500040005046
S31508002D603254FFFF0F2870B5044605D940F6746142
S31508002D70124801F0AEFC0F244FF00042104B1149E7
S31508002D805D6E03F580535A664AF6CD334E6C802045
S31508002D900B64FFF7DBFE0B6A23F00F0323430B627A
S31508002DA0F30744BF084B0B64002DA2BF4FF0004247
S31508002DB0064B5A6601F083FE70BD00BF76700008A8
S31508002DC000800050004009503254FFFF00A0005018
S31508002DD038B5174B044698420D4607D0154B98420E
S31508002DE004D040F26911144801F073FC25B9204655
S31508002DF0BDE8384001F068BE012204F580535A60E8
S31508002E0040F6FF71204605F00F0201F059FEA26355
S31508002E10782101F055FE05F001036A0748BF43F023
S31508002E200203A26C02F003029A42FAD138BD00BF2F
S31508002E300000015B00000A50C8700008072838B572
S31508002E4004460D4603DD7721084801F042FC1F2C95
S31508002E5003D99121064801F03CFC064A064B002D91
S31508002E6008BF13460122A2401A6038BD1D7100082A
S31508002E7070710008401004504020045010B50446F4
S31508002E8018B991211F4801F024FC23781B0613F07A
S31508002E90604F03D092211B4801F01BFCE3780F2BEF
S31508002EA003D99521174801F014FC01212020FFF7CA
S31508002EB009F801212120FFF705F80122124B1520F8
S31508002EC05A60227812069A606178A27842EA01422C
S31508002ED09A61FF229A6200229A631A644FF00042AE
S31508002EE05A654FF0FF3203F500531A6500F06CFE81
S31508002EF01520E17800F076FEBDE81040152000F0B8
S31508002F00FBBD00BF1D71000800000450F8B501267E
S31508002F10C3B2072805460C46174606FA03F603DD2C
S31508002F20DE21344801F0D5FB1CB9DF21314801F018
S31508002F30D0FB236823F47C1323F00F031BB1E22193
S31508002F402C4801F0C6FBA37A1B0413F47C0F03D0AC
S31508002F50E721284801F0BDFBE37A1B0513F07E6FD5
S31508002F6003D0E921234801F0B4FB237B5B0513F06A
S31508002F70FE5F03D0EB211F4801F0ABFB1E4B27F089
S31508002F8003071E65AB00226803F1A04303F58823F7
S31508002F905A60302202FB05F0637B00F1A04000F581
S31508002FA080200366E37AA27A1B0543EA0243227B62
S31508002FB043EA4253C365076703F0C6FC0F4B227A00
S31508002FC05E6502B11E64627A02B19E632279A379B4
S31508002FD043EA0243084A93616179E37943EA014384
S31508002FE006498B61064B56639E64BDE8F84003F0BC
S31508002FF0A6BC00BF1D710008002004500010045034
S3150800300000000450F8B507460C461E4615464AB950
S3150800301040F25511314801F05CFB24B1402E09D12C
S31508003020062328E021B94FF42070FEF773FF044603
S31508003030402E42D0402E09D87EB1202E17D04FF40C
S31508003040CE71BDE8F840254801F043BB602EF6D1A5
S31508003050B5EB940F3CD804230DE0B5EB141F04D947
S3150800306040F287111D4801F034FB102303E0B5EB4D
S31508003070D40F1CD808235D436B0803EB4413B3FB3A
S31508003080F5F3174D203BB5EBC30F4FEAC30404D243
S3150800309040F2B311114801F01CFB602207F50053FA
S315080030A09A602C4007F580539E60FC61F8BD4FF48A
S315080030B0C6710A4801F00DFBDCE70623B4FBF3F3FF
S315080030C0AB42ADD240F29111044801F002FBA7E7EA
S315080030D04FF4CB71014801F0FCFABCE7C371000854
S315080030E0F8FF7F0038B50C4B044698420D4604D0CD
S315080030F04FF43971094801F0ECFA012204F58053BE
S315080031005A60EB43934003F00A036361656115B99E
S3150800311004F50054626038BD00C00550C37100084C
S31508003120124B10B59842044604D040F25E4110484E
S3150800313001F0CFFA012104F58053596040F6AA63DD
S3150800314041F20502636100230A48A360E365E26071
S3150800315004F500522361E361E36490640348A365C0
S31508003160844204BF23656365516010BD00C00550E5
S31508003170C3710008FFFF01002F4B70B59842044643
S315080031800D4604D040F215312C4801F0A2FA20462B
S31508003190FFF7C6FF012304F580567360AB7C1BB1AD
S315080031A0A36843F08043A360EB7C4BB1224B9C425F
S315080031B002BF2A7DA3F51033C3F8C8218023F3651F
S315080031C02A8A6B7B20461343EA891343E3602B7BE9
S315080031D0D5E90112FFF716FF6B7D1BB1A36843F40F
S315080031E08033A360AB7D1BB1A36843F40043A3609F
S315080031F0EB7D2A7E1B07120502F4E00203F0E0438A
S315080032001343A3656B7E9A1E012A4FF0020209D862
S315080032100B49032BC1F8202709D10423F3652B7822
S31508003220636170BD0749012BC1F82027F4E7042222
S3150800323004F50053DA65F2E700C00550C3710008CB
S3150800324000D0035000E0035010B5044620B940F200
S315080032503A21104801F03DFA2378C3B1012B03D077
S31508003260022B14D0032B04D13F236278D340DB070B
S3150800327004D440F23D21074801F02BFA0122637875
S3150800328021789A4030235943034B5A5010BD40F2D7
S31508003290FF33EAE71772000840E0035010B504460A
S315080032A020B940F25A21124801F013FA2378E3B103
S315080032B0012B03D0022B18D0032B04D13F236278AD
S315080032C0D340DB0704D440F25D21094801F001FA36
S315080032D030222378534303F1A04303F57033586C27
S315080032E06378D84000F0010010BD40F2FF33E6E7EE
S315080032F01772000810B5044620B940F26E2112482C
S3150800330001F0E7F92378E3B1012B03D0022B18D09B
S31508003310032B04D13F236278D340DB0704D440F261
S315080033207121094801F0D5F930222378534303F176
S31508003330A04303F57033186C6378D84000F0010099
S3150800334010BD40F2FF33E6E717720008034BD3F8C7
S315080033502424D3F820041040704700BF00C003504F
S3150800336010B5044620B94FF449711C4801F0B1F96B
S3150800337023782BB96078053818BF4FF0FF3010BD99
S31508003380012B08D16378012B1CD0032B14BF4FF0F7
S31508003390FF300420F3E7022B09D16378A3B1052B8C
S315080033A014D0072B14BF4FF0FF300820E7E7032B94
S315080033B00ED16378022B0ED0052B14BF4FF0FF30C9
S315080033C00A20DCE70320DAE70620D8E70720D6E755
S315080033D04FF0FF30D3E70920D1E700BF1772000886
S315080033E0064BDA6E02F03002202A06D0DA6E22F098
S315080033F0300208B142F01002DA6670470040005009
S315080034002DE9F041037804460D46164613B3012B01
S3150800341003D0022B1ED0032B04D13F236278D3405E
S31508003420DB0703D45D21274801F053F9264BD3F86F
S3150800343010331BB16021234801F04BF90F2D0CD82E
S31508003440DFE805F037323232323232323232323255
S315080034503232323240F2FF33E0E7B421194801F044
S3150800346038F94FF00008204606B301F0BBFD0F21DE
S3150800347067782378072F03EB430388BF083F4FEA93
S315080034800313124895BFBF00BF0004330C3308FA74
S3150800349007F2B940184401F03BFB85B9204656B1FE
S315080034A0BDE8F04101F09EBDA846DCE7FFF7CCFE7B
S315080034B0DDE7A846DBE7BDE8F041FFF7C5BEBDE896
S315080034C0F08100BF7472000800C0035030C003507A
S315080034D02DE9F047037806460C461546002B50D0D2
S315080034E0012B03D0022B4CD0032B04D13F23727837
S315080034F0D340DA0704D44FF49C714A4801F0E9F83E
S31508003500022D06D9042D04D040F23911454801F0A0
S31508003510E0F8454FD7F8103323B14FF49D71414871
S3150800352001F0D7F8002C2FDB73786340032B04D9FE
S315080035304FF49F713B4801F0CCF80127072C05F0A2
S3150800354005094FF00308327805F0060507FA04F76F
S3150800355026DC4FEA840A08FA0AF84146334802FA92
S315080035600AF201F0D5FA7278414602F003023048B1
S3150800357002FA0AF201F0CCFAB9F1000F37D12D4B55
S3150800358036E040F2FF33B2E7631C06D1D7F82414BD
S31508003590707801F0CCFA041ECFDA2046BDE8F08731
S315080035A0A4F1080A4FEA8A0A08FA0AF841462248A4
S315080035B002FA0AF201F0ACFA7278414602F0030206
S315080035C01E4802FA0AF201F0A3FAB9F1000F14D064
S315080035D01F2C0CDD74211A4801F07BF8194BC3F82F
S315080035E0107495B97421164801F073F803E0154B69
S315080035F0C3F810746DB90F4B0CE01F2CBFDD742196
S315080036000F4801F066F80B4BE9E774210C4801F006
S3150800361060F80C4BC3F814740123064AA340C2F899
S315080036202034BAE77472000800C0035000C403507F
S3150800363008C4035000E0035004C403500CC40350EC
S31508003640D072000800D0035070B5154E05463042BA
S315080036500C4604D040F28911124801F03AF8344277
S3150800366004D04FF4C5710F4801F033F80E4B2C40C7
S31508003670D3F83024012022EA0502C3F83024D3F80F
S3150800368030241443C3F83044D3F82C242A43C3F80F
S315080036902C24FFF7A5FE054BC3F8205470BD00BFC8
S315080036A0FFFF00F07472000800C0035000E00350EA
S315080036B0F8B5037805460F46164613B3012B03D013
S315080036C0022B1ED0032B04D13F236A78D340D80798
S315080036D004D440F29B11174800F0FBFF164BD3F8B1
S315080036E0103323B14FF4CE71124800F0F2FF28468A
S315080036F0FFF736FE791C044606D1421C08D120463F
S31508003700F8BD40F2FF33E0E7431CF8D0B8420ED1CB
S315080037102846032186F00102FFF772FE012004F114
S31508003720100306FA03F19840FFF78EFFE7E74FF01C
S31508003730FF34E4E77472000800C00350054B9A682A
S315080037409107FCD45A689207F9D4DA69002AF6D1A7
S31508003750704700BF00800A5010B5074C6368DB0746
S3150800376004D44FF49F71054800F0B3FF01F08EFCB6
S315080037700223236110BD00BF00800A502C73000885
S3150800378008B5FFF7DBFF0122024B03F580514A60BB
S315080037901A6108BD00800A50044B10B55C68012CFC
S315080037A003D1FFF7D9FF024B5C6010BD00800A50B9
S315080037B000A00A5038B5074DFFF7C0FF6B680446EE
S315080037C0012B03D1FFF7E8FFFFF7B8FF2378EB607B
S315080037D038BD00BF00800A5038B505460C4601F0D2
S315080037E05FFCBDB96268237812B1127843EAC20356
S315080037F0627843EA4203A26812B1127843EA821356
S31508003800E27843EA8203226912B1127843EA422334
S31508003810014A936438BD00BF00800A5030B58D4810
S315080038208BB003F09CF820B14FF44E718A4800F033
S3150800383050FF6C46894D0FCD0FC42B68884A23600C
S31508003840FF238DF80130D2F84C3113F4802340F071
S31508003850F580D2F850218DF801309DF801306C467C
S31508003860FF2B08BF252368467E4D8DF80130FEF7ED
S315080038709DFE3220FEF7FCFE0FCD0FC40FCD0FC400
S3150800388095E8030084E80300754BD3F84C2112032E
S3150800389040F1B880A3F5FE431C88B4F5807F28BFA5
S315080038A064248DF81940FEF77BFE044484F308046B
S315080038B06D488DF81840FCF779FE6846FEF75EFD00
S315080038C03220FEF7DBFE6948FEF7FEFF6848FFF781
S315080038D089F8684803F043F820B140F2CB115E48F6
S315080038E000F0F7FE644C0020FEF7CEFEFEF7A2FFBE
S315080038F0236F002023F0070343F003032367FEF733
S31508003900C3FF236F5D4923F4744323675C4BD3F8E5
S31508003910FC2012F0807279D1D4F8803023F00303AA
S3150800392043F00103C4F88030C1F88020524CD4F823
S31508003930203123F0070343F00203C4F82031D4F8FA
S31508003940283123F0070343F00203C4F82831D4F8DA
S31508003950803123F0030343F00103C4F88031D4F81F
S31508003960403123F0030343F00203C4F84031D4F88E
S31508003970603123F0030343F00203C4F86031D4F83E
S31508003980403223F0030343F00203C4F84032D4F86C
S31508003990003223F0070343F00203C4F80032D4F8D8
S315080039A0083223F0070343F00203C4F80832D4F8B8
S315080039B0703223F0030343F00103C4F87032D4F8DD
S315080039C0203223F0070343F00103C4F82032FEF740
S315080039D0BDFC4FF0E0220020136943F00403136195
S315080039E0D4F8603223F0070343F00103C4F86032C9
S315080039F0D4F8943223F0070343F00103C4F8943251
S31508003A000BB030BDD3F85041E4B24AE7D3F8FC20F6
S31508003A1022F08072C3F8FC20D4F8802022F003023A
S31508003A2042F00102C4F880200022C1F88020D3F8B1
S31508003A30FC2042F08072C3F8FC2077E74FF07E63E3
S31508003A4093F89C2093F99C30002BFFF606AF8DF86F
S31508003A50012002E71C7500085C740008D47400088D
S31508003A600080E00FE8740008C017530200B4C404CD
S31508003A70C0EA21012075000800800050009000501F
S31508003A8000ED00E007B5094B18689A889B79009005
S31508003A906846ADF804208DF80630FFF72BF90C20A0
S31508003AA0FFF760F9002003B05DF804FB1075000805
S31508003AB013B50024064A6846536F43F0010353675B
S31508003AC000948DF80440FFF749F8204602B010BD6F
S31508003AD0004000500028ABBF00F16040054B00F5E0
S31508003AE0614000F00F00ACBF90F80003185C0009B5
S31508003AF0704700BF14ED00E04C2810B5044608D8FE
S31508003B0001236109074A04F01F04A34042F8213043
S31508003B1010BD4FF49871044800F0DBFD002CF7DB6C
S31508003B20EEE700BF00E100E0407500084B2810B53D
S31508003B30044604D940F23B11064800F0CAFD064B7C
S31508003B40621153F8220004F01F04E040C04300F05D
S31508003B50010010BD4075000800E100E000F10C030B
S31508003B60572B10B5044604D940F24B11144800F0FF
S31508003B70B0FDEFF31083DB0702D50122104610BD16
S31508003B802046FFF7D3FF02460028F6D160B2FFF7BA
S31508003B90A1FF0146EFF3118313B1B0EB131FECD26B
S31508003BA0084B5B68C3F30803002BE7D0103B58B2F9
S31508003BB0FFF790FF814234BF00220122DEE700BFF3
S31508003BC04075000800ED00E0002808DB01224309E3
S31508003BD0034900F01F008240603341F823207047F4
S31508003BE000E100E038B500F110035C2B04460D46F1
S31508003BF004D94FF4EF710E4800F06BFD0F2D04D970
S31508003C0040F2DF110A4800F064FD60B20028ACBF3C
S31508003C1000F16040074B4FEA0515EDB2ABBF00F562
S31508003C20614000F00F0080F800531D5438BD00BFF6
S31508003C304075000814ED00E010B502F085FE0A4B49
S31508003C401A786AB901226FF004041A7002F077FE36
S31508003C50204605210134FFF7C5FF4C2CF8D110BDCD
S31508003C60BDE8104002F06BBE0D19002007B5684686
S31508003C7000F00AFADDE900010022034B03B05DF803
S31508003C8004EB00F037BA00BF300D00202DE9F04FE5
S31508003C909B46531C05460E46174687B035D170B36A
S31508003CA008244FF00008784BCDF8148083F800807C
S31508003CB0109B002B00F0DF80C3F80080002E00F078
S31508003CC0DC806B68B34240F2D88002F03DFE0736CE
S31508003CD005AB26F007063A46CDE9008382465B46E1
S31508003CE03146284600F099FF059F814607B1F8B985
S31508003CF0504602F024FE192007B0BDE8F08F40F2C6
S31508003D00A721624800F0E5FCCAE7531EB3F5007F19
S31508003D1001D21A4204D040F2A2215C4800F0D9FC34
S31508003D2025B940F2A721594800F0D3FC3C46B8E72C
S31508003D30B7F8028029694FEAC802C0EBC8080139FA
S31508003D40B8F1270F29617BD9BBF1000F51D1864203
S31508003D5006F1080848D022463946284600F007FFEB
S31508003D6004460590059B9844404600F052FF059985
S31508003D7006F10F004A88C308A2EBD002A8F8022071
S31508003D80CA88A8F80430002A30D0D31A9BB201EBAF
S31508003D90C202A8F8063093808B88F608A380B8F884
S31508003DA004303A46E380414600232846668000F000
S31508003DB07FFFAB680833AB60237843F001032370B9
S31508003DC02B6901332B616288AB68504603EBC2034B
S31508003DD0EA68AB60934288BFEB6002F0B0FD109BC7
S31508003DE0083400201C6087E73C46BBE7A8F8062095
S31508003DF0D2E707EB08042046039200F00AFF09F110
S31508003E000701C9080598618008F10701C908A1805A
S31508003E10C18899B1C900039ACE1DB21A02EB0903EB
S31508003E20C3F3CF030144E3808B80A38808F1FF38EE
S31508003E304FEAD808A0F80280C380BAE7E180F4E721
S31508003E40BBF1010F1BD107F10803B3FBF4F204FB26
S31508003E501233B3B122463946284600F088FE044696
S31508003E6023783A4643F00103237021460123284666
S31508003E7000F01EFFA7E722203EE721203CE7864206
S31508003E80E8D13C46ECE700BF0F1B0020BC750008D4
S31508003E9007B5009313460A4601460348FFF7F6FEA0
S31508003EA003B05DF804FB00BF300D00202DE9F74F85
S31508003EB00C46054620B940F28531724800F009FCE7
S31508003EC0002C00F0DC80D5E9056802F03DFD14F809
S31508003ED0087C34F806CCFB07009002D5BCF1000F2D
S31508003EE006D1009802F02BFD012003B0BDE8F08F43
S31508003EF0AB68D5F8109034F804ECA3EBCC0B09F1B9
S31508003F000103A4F108010CF10102C5F808B02B6100
S31508003F10BEF1000F39D0A1EBCE03D888B3F802A0C2
S31508003F200190187807F00207C00723D41FBB019831
S31508003F30A0EB0A07012F28D10CF10202ABF1080702
S31508003F405244C5F81090AF6034F802ECBEF1000F89
S31508003F501DD114F8081C24F806EC6EF3000104F8C9
S31508003F60081C013A5A801A786EF300021A70002269
S31508003F70DA8040E04FB114F8087C72446FF34107C9
S31508003F8004F8087C00279F80DEE70B46DCE701EB98
S31508003F90CE0AD5E9007007EB0009CA450ED314F816
S31508003FA0081C013A6FF3000104F8081C002124F8E4
S31508003FB0061C5A801A7861F30002D7E711F83E10FA
S31508003FC0574611F001012FD014F8081C013A6FF377
S31508003FD0000104F8081C002192B224F8061C5A8035
S31508003FE01A7861F300021A70C3F107023A44C2F361
S31508003FF0CF02DA80BA80002E3FD0B3423DD3728812
S31508004000002A08BF1E46B8F1000F06D0434504D85B
S31508004010B8F80220002A18BF43460098C5E9056388
S3150800402002F08DFC002060E7AEEB0C0EBEF1010F2E
S31508004030CAD1BAF802C0AAF802109444BAF80620FF
S31508004040CAB10AEBC20700212A69013A2A61AA689D
S31508004050083AAA6014F8082C24F8061C6FF3000224
S3150800406004F8082C1A78A3F802C061F300021A7043
S31508004070002FB9D17BE71746E5E71E46C3E722209E
S3150800408033E700BFBC7500080249034A0160521AAB
S3150800409042607047201B00200000042038B50369E1
S315080040A00D4614460BB33AB999B9046824B940F2D7
S315080040B039110F4800F00DFB2378D90707D555B9F4
S315080040C0E38893B104EBC3042378DA07F8D42046CF
S315080040D038BD8469EAE7012D07D1A3882BB1A4EB83
S315080040E0C3042378DB07F8D4F1E70024EFE700BF21
S315080040F02A760008F8B50D4617461C46064618B136
S3150800410011B1042A00D823B940F28F110E4800F0E5
S31508004110E0FA00213046C4E90065C4E90211C4E9A1
S31508004120056621612777616200F073FD2369013D09
S31508004130ED08013375802361A36808460833A36038
S31508004140E3680833E360F8BD2A760008004870473C
S31508004150300D002008B500F080FA034B1868BDE85A
S31508004160084002F0FDBC00BF580D002030B5094DCF
S315080041708BB001AC0FCD0FC40FCD0FC42B68002137
S3150800418001AA0548236002F098FC044B18600BB09E
S3150800419030BD00BFA076000855410008580D002024
S315080041A070B502F0D1FB144E05463478FCB9134BB2
S315080041B01C60134B1C60134B1C6000F02BF801208D
S315080041C002F036FC01F040F90F4B0246186020B9A0
S315080041D0284602F0B4FB232070BD234640F2E7319F
S315080041E00A4800F06DF80A4B186001233370284618
S315080041F002F0A5FB0020EFE710190020640D00204F
S31508004200600D00206C0D0020680D002018FCFFFFD3
S315080042105C0D002010B5002486B01422214601A8A2
S315080042208DF8004000F0BCFD012313488DF80430DA
S3150800423002F095FBBFF34F8F6846FFF7BBFA20469F
S3150800424001A98DF80440FFF7C7FA20460F2100F0B0
S3150800425047FF0F21204600F051FFFFF791FA00F0C3
S3150800426015FF064B43209C61FFF7AEFC4320FFF782
S3150800427043FC06B010BD00BF1C75000800800A503C
S3150800428040F6B131014800F024BA00BF2A77000889
S31508004290002307B50193084B1B68013304D040F28D
S315080042A02131064800F015FA02F08DFD019B002B1E
S315080042B0FCD003B05DF804FBF01A0020C3780008B0
S315080042C053B94AB9002908BF00281CBF4FF0FF316F
S315080042D04FF0FF3000F082B9ADF1080C6DE904CE5D
S315080042E000F006F8DDF804E0DDE9022304B07047C3
S315080042F02DE9F04F099D0C46002B4DD18A420F46F9
S3150800430084469646B2FA82F360D94BB102FA03FEA6
S31508004310C3F120029F4000FA03FC20FA02F2174379
S315080043204FEA1E461FFA8EF44FEA1C42B7FBF6F117
S3150800433006FB117701FB04F042EA0742904208D9CE
S315080043401EEB020201F1FF3702D2904200F23181E0
S315080043503946121A1FFA8CFCB2FBF6F006FB10223D
S3150800436000FB04F44CEA024C644508D91EEB0C0C1D
S3150800437000F1FF3202D2644500F21E81104640EA7F
S315080043800140ACEB040C002125B12CFA03F3002202
S31508004390C5E90032BDE8F08F8B4205D90DB1C5E9F4
S315080043A0000100210846F5E7B3FA83F100294DD14B
S315080043B0A342C0F0F380904280F0F0800646234680
S315080043C00846002DE6D0C5E90063E3E7002B40F078
S315080043D0A3808A1A4FEA1E471FFA8EF60121B2FBFE
S315080043E0F7F407FB14204FEA1C4242EA004206FB98
S315080043F004F090420FD91EEB020204F1FF382CBFDD
S315080044004FF001094FF00009904203D9B9F1000FA6
S3150800441000F0CC804446121A1FFA8CFCB2FBF7F067
S3150800442007FB102200FB06F64CEA024C664508D943
S315080044301EEB0C0C00F1FF3202D2664500F2B38087
S315080044401046ACEB060C40EA04409DE7C1F1200695
S315080044508B4004FA01FE22FA06F720FA06FCF4401D
S315080044608A401F434EEA0C0300FA01FE4FEA17483A
S315080044704FEA13491FFA87FCB4FBF8F008FB10440F
S3150800448049EA044400FB0CF9A1450ED93C1900F190
S31508004490FF3A2CBF4FF0010B4FF0000BA14503D993
S315080044A0BBF1000F00F08B805046A4EB09041FFAFD
S315080044B083F9B4FBF8F308FB134403FB0CFC49EA45
S315080044C00444A44506D93C1903F1FF3801D2A44592
S315080044D07BD8434643EA0040A4EB0C04A0FB0298B1
S315080044E04445CC46434602D306D1CE4504D20138CC
S315080044F0B9EB020C68EB0703002D6CD0BEEB0C027F
S3150800450064EB030422FA01F304FA06F6CC40002110
S315080045101E43C5E900643DE702FA03FEC3F1200124
S3150800452004FA03F200FA03FCCC404FEA1E4720FACD
S3150800453001F11FFA8EF6B4FBF7F00A4307FB1044A5
S31508004540110C41EA044100FB06F48C420ED91EEB1D
S31508004550010100F1FF382CBF4FF001094FF00009A7
S315080045608C4202D9B9F1000F2CD04046091B92B2F1
S31508004570B1FBF7F407FB141142EA014204FB06F10A
S31508004580914207D91EEB020204F1FF3801D291428B
S315080045901ED84446521A44EA004120E7861A64EBBC
S315080045A0030301200DE7F44402384AE7023C72444B
S315080045B031E702397244CCE6F4440238DFE60238C1
S315080045C03C4472E702387144D0E7023B3C4481E739
S315080045D0023C7244DEE72946DCE600BF704700BFAE
S315080045E008B5064B044613B10021AFF30080044B0F
S315080045F01B6803B19847204600F06CF800000000DD
S315080046000419002070B50D4D00260D4C641BA4102E
S31508004610A64209D10B4D00260B4C02F001FC641B87
S31508004620A410A64205D170BD55F8043B013698473B
S31508004630EEE755F8043B01369847F2E7141B0020CD
S31508004640141B0020141B0020181B002008B5FBF7BC
S3150800465077FEBDE80840FBF7BFBE08B500F067FB6C
S31508004660FFF7F4FF00F09AFB00B908BD00F05EFB07
S31508004670F8E77047704770477047704708B5FBF70B
S3150800468013FF00F06EFABDE80840FBF703BF70475A
S3150800469000F04EBF08B5FCF70FF8FBF7BFFEFBF7B7
S315080046A0CBFEBDE80840FBF7DFBE00F002B8704756
S315080046B070470F207047FEE700239A4200D17047E3
S315080046C010B550F8234041F8234001339A42F8D1F7
S315080046D010BDFEE7FEE7436803B11847222070477E
S315080046E0436903B11847FF207047704737B50D680F
S315080046F00C46AB88ADF804302B78022B0CD00DF1A4
S31508004700030101A8FCF7C0F89DF80330204683F0A2
S3150800471001032B70FFF7E9FF03B030BD0368187873
S31508004720704713B50468A388ADF804302378022BC4
S3150800473015D00DF1030101A8FCF7A6F8A2799DF89A
S315080047400330012A13D1618843EA41034FF6E07129
S3150800475063F03F039BB28B4203D12270638002B0A1
S3150800476010BD4FF6DF729342F8D10022F5E7002A12
S31508004770F5D183F001032370F1E703681A78022A5A
S3150800478003D100225A80FBF721BF704710B5046891
S315080047902378022B07D0A379022B02D16079FCF784
S315080047A015F90223237010BDD0E900031847836862
S315080047B000681847C36800681847036900681847FF
S315080047C043690068184707B503788DF804304378BD
S315080047D08DF80530837801A823B9FBF7F5FF03B0F8
S315080047E05DF804FBFBF7C4FFF9E707B503788DF816
S315080047F0043043788DF80530837801A823B9FBF790
S31508004800B7FF03B05DF804FBFBF7DEFFF9E707B572
S3150800481003788DF80430437801A88DF8053000F048
S315080048207DFB03B05DF804FB13B5044603780DF170
S3150800483003018DF80430437801A88DF80530FBF79D
S31508004840F1FFA3789DF803000BB980F0010002B0D0
S3150800485010BD10B588B00C460E99009207910D99B7
S31508004860024606919DF8301005910B9904919DF822
S31508004870281003910021CDE9013108462346FCF7AB
S3150800488061F908B010BD10B588B004460E980092BC
S3150800489007900D98224606909DF8300005900B98D3
S315080048A004909DF8280003900020CDE901300B46BE
S315080048B00121FCF747F908B010BD30B5C27EC37FA9
S315080048C085B004460D468DF800208DF8013081B379
S315080048D0012204216846FBF70BFF237F01228DF88E
S315080048E0043094F82030022101A88DF80530FBF732
S315080048F0FFFE94F83530023B012B17D8637F002260
S315080049008DF8083094F82130012102A88DF8093075
S31508004910FBF7EEFE00220421A37F8DF80C3094F8F5
S3150800492022308DF80D3003A8FBF7E2FE002005B013
S3150800493030BD0A466846FBF7DBFE237F2A468DF81C
S31508004940043094F82030294601A88DF80530FBF785
S31508004950CFFE94F83530023B012BE7D8637F2A4611
S315080049608DF8083094F82130294602A88DF80930C8
S31508004970FBF7BEFEA37F2A468DF80C3094F822304A
S3150800498029468DF80D30CEE7002307B58DF803309C
S3150800499090F83530022B0BD1437F0DF103018DF8CA
S315080049A0043090F8213001A88DF80530FBF76CFF2C
S315080049B09DF8030003B05DF804FB38B504460D46C0
S315080049C001F0C2FFA3889BB223B92B60BDE838402B
S315080049D001F0B5BF142263889BB202FB0343083378
S315080049E02B606388E2889BB20133B3FBF2F102FBCA
S315080049F011339BB26380A388013B9BB2A380E5E792
S31508004A0037B590F835500446022D21D1417E827F74
S31508004A1090F8223049B98DF804208DF8053001A8A0
S31508004A20FBF7D2FE002003B030BD012907D18DF86F
S31508004A3004208DF8053001A8FBF79AFEF2E7017EFF
S31508004A408DF804208DF8053001A80029F4D1E7E790
S31508004A50012DE7D1037E6BB911238DF80430FCF7DD
S31508004A6075FC2A46204601A9FCF7E8FB2046FCF718
S31508004A7085FCD7E71323F0E770B5054614460E46BE
S31508004A8001F059FF2B685C4034405C402C60BDE85F
S31508004A90704001F04BBF08B500F0E0F9BDE80840EA
S31508004AA00021FDF7E3B90029CCBF01210021FDF75C
S31508004AB0DDB902214FF42070FDF726BE7047704716
S31508004AC0436D0B42FCD1704708B54368DA0714D525
S31508004AD08368DB0702D50369D90707D50A2350215E
S31508004AE08363FFF7EDFF836C9A07FCD1012200F57B
S31508004AF000535A6043689B07FCD408BD836C5B0669
S31508004B00FCD54164704783695B06FCD5C163704771
S31508004B1070B5054614460E4601F00DFF2B685C403D
S31508004B2034405C402C60BDE8704001F0FFBE21FABD
S31508004B3000F2D20730B5034600F0FC040FD5002278
S31508004B400132D2B2042A02D14FF0FF3008E08318AE
S31508004B5003F00303234421FA03F5ED07F0D41846BE
S31508004B6030BD00F000B800207047FEF757BEF8B514
S31508004B700C468D18073552421540A5F1080706461A
S31508004B80384600F046F8A188381B628801EBE00138
S31508004B9089B2A2EBE00225F8041C25F8062CA288A7
S31508004BA0C310AAB1A4EBC202B2F802C0D18003EBCB
S31508004BB00C015180E28892B1D31A9BB204EBC2046D
S31508004BC025F8023CA380B3680344B3603846F8BDB1
S31508004BD015F8082C42F0020205F8082CEAE725F831
S31508004BE0022CF0E707B500224FF0FF3101AB019226
S31508004BF0FFF74EF9019803B05DF804FB10B50446BB
S31508004C00FFF7A4FA2146BDE81040FFF74FB9FFF7B2
S31508004C10F5BF0023036043607047F0B5D0E905404F
S31508004C20551C08BF0822002B4FF0000518BF044684
S31508004C30DDF818C0CCF80050002C37D09DF8147059
S31508004C406588FF0007EBC505C2F1000E2078C0078E
S31508004C5008D51BBBE088A0B104EBC004658807EB48
S31508004C60C505F3E78D42F4D363B904F10806B6FB2C
S31508004C70F2F002FB106670180EB1A842EAD8CCF81A
S31508004C800040F0BD082A0FD06088013004EBC00050
S31508004C90461A06EA0E06801B8542F0D2A08800282E
S31508004CA0EFD0A4EBC004D9E70846E8E72046E8E7D2
S31508004CB02DE9F041D0E90545074688461646F3B181
S31508004CC094420FD042B1954215D142460121384649
S31508004CD0FFF7E4F905460EE00A463146FFF7DEF926
S31508004CE00446F2E70A460021FFF7D8F9B54204461A
S31508004CF0EBD0002EE9D0C7E90545BDE8F08194421E
S31508004D0008D08C4228BF0C46B54205D0454538BF69
S31508004D104546F0E70C46F7E74546ECE708B500F0E8
S31508004D2013F800F039F8FEE770477047704708B582
S31508004D30FFF7A4FCFFF7AEFCFFF7B7FCFFF7B7FCDD
S31508004D40BDE80840FFF7B4BC08B5FEF78FFFFFF7CC
S31508004D50EBFFFEF771FFFEF795FEFFF706FFFEF77E
S31508004D60A7FEFFF71DFAFFF7E0FF00F0CBFB00F008
S31508004D7007F8FFF78CFCBDE80840FFF7F7B970475E
S31508004D8008B5FFF777FCFFF776FCFFF775FCFFF72A
S31508004D9074FCFFF7F4FF08BDFFF77ABC00207047E4
S31508004DA002440346934200D1704703F8011BF9E712
S31508004DB00A44431E914200D1704710B511F8014BC1
S31508004DC0914203F8014FF9D110BD034613F8012BA0
S31508004DD0002AFBD1181A01387047034611F8012B2F
S31508004DE003F8012B002AF9D170470000014B186817
S31508004DF0704700BFE01A00200A4B1B6F03F0070339
S31508004E00013B032B03D8DFE803F00A030608FEE795
S31508004E10054B18687047054BFBE70548704705487A
S31508004E20704700BF00800050E01A0020E81A0020F2
S31508004E3080D54302002D310108B5FFF7DDFF054B8C
S31508004E401B6FC3F303330133B0FBF3F0024B186057
S31508004E5008BD00BF00800050DC1A002000487047DB
S31508004E6000B4C40400487047002D3101014B18688E
S31508004E70704700BFE81A00200048704780D54302F3
S31508004E804FF40022184B5A664FF0B4439868C0F3A3
S31508004E9004400C280AD8DFE800F00B0909090909BB
S31508004EA0072119091B1D1F0010487047002070476D
S31508004EB09B6803F04073B3F1807F11D0B3F1007F94
S31508004EC010D00B4A002B08BF104670470948704798
S31508004ED009487047094870470948704709487047A4
S31508004EE0094870470948704700900050405DC60061
S31508004EF000093D00C0EA210180BA8C010048E8019A
S31508004F00005A62020024F40080841E0040420F000A
S31508004F10014B1868704700BFE41A002038B50446EC
S31508004F2030B914484FF48A71FFF7D3FB222038BDF5
S31508004F3003788BB1012B03D0022B0DD0032B04D1A0
S31508004F403F236278D340DB0709D40A484FF48C71B3
S31508004F50FFF7BFFB2120EAE740F2FF33F1E701F054
S31508004F60F3FC0546204600F067F8284601F0E7FC02
S31508004F700020DCE7306F00080C4B1B787BB1072854
S31508004F800FD871B10A4B03EB00131B7B5BB1094BBE
S31508004F90DB6AC34003F0010300200B707047064824
S31508004FA07047064870470648704700BF0919002031
S31508004FB0A00C002000000450028000F0018000F0E0
S31508004FC0078000F0836B10B5002B044603DCA32191
S31508004FD00348FFF77EFBA36B013BA36310BD00BF2D
S31508004FE08D6F000810B5044620B94FF4D8711048E3
S31508004FF0FFF76FFB2378C3B1012B03D0022B14D024
S31508005000032B04D13F236278D340DB0704D440F254
S31508005010B3110748FFF75DFB0122637821789A40B0
S3150800502030235943034B5A5010BD40F2FF33EAE789
S315080050301772000840D0035010B5044620B940F254
S315080050409D211048FFF745FB2378C3B1012B03D0F8
S31508005050022B14D0032B04D13F236278D340DB07FD
S3150800506004D44FF428710748FFF733FB012263780D
S3150800507021789A4030235943034B5A5010BD40F2C9
S31508005080FF33EAE71772000840F00350034B5A68EB
S31508005090D20702D5DA69002AF9D1704700800A508A
S315080050A038B9064B5A68D20702D59A6D002AF9D143
S315080050B070478C210248FFF70CBB00BF00800A50DE
S315080050C08B73000810B9044B5964704740F2C71136
S315080050D00248FFF7FEBA00BF00900A508B7300081B
S315080050E010B9044B5964704740F203210248FFF790
S315080050F0F0BA00BF00A00A508B73000810B9044B21
S315080051001964704740F23F210248FFF7E2BA00BF30
S3150800511000A00A508B73000808B510B9044B186C28
S3150800512008BD044840F27A21FFF7D3FA0020F7E7D2
S3150800513000800A508B73000838B504460D46FFF701
S31508005140AFFF14B91DB1012D04D0002001E0034BB7
S31508005150D86C38BD014B186DFBE700BF00800A50BC
S3150800516070B506460D461446FFF79AFF16B915B1EF
S31508005170012D03D070BD034BDC64FBE7014B1C65B6
S31508005180F8E700BF00800A5070B50D46E8B103681D
S3150800519013F4E07F03F03F06C3F3821210D0012A0E
S315080051A013D10B4C9B0603D591210A48FFF791FAB8
S315080051B045B104F5805401230020B340236070BD37
S315080051C0054CEFE704F50054F5E70E20F7E700BFB6
S315080051D068800050707100086480005030B50E4C2D
S315080051E0416123688BB9206083600DE0891A9A684B
S315080051F01D4641616AB113465A698A42F6D935B1E4
S31508005200A860521A83605A6130BD0025F4E7206011
S31508005210F7E798608260F7E7640D00200D490B6890
S31508005220A0B10022A3B1834203D1836822B90B60DF
S3150800523003E01A469B68F5E7936083680BB900207C
S3150800524070475A6941690A445A61F8E7222070474B
S3150800525002207047640D002038B500F0EDF80025EF
S31508005260084B094C1A682368C31A2AB123B1516935
S31508005270994203D3C91A5161206038BD55615B1A3A
S315080052809268F2E7640D0020600D002038B5154DD0
S315080052902B682BB35B69A3B1134A022014681C441C
S315080052A001F0C6FB204600F0DBF800230F492A6808
S315080052B00B7022B1D08880070AD501230B70002015
S315080052C038BD022001F0B4FB022000F013F9ECE728
S315080052D09268002AF3D050690344012BEAD9EEE715
S315080052E02220EDE7640D0020600D00200F19002034
S315080052F0C2072DE9F843044607D54B4A136801331C
S315080053001360FFF7A9FFFFF7C1FFA30740F18A80E3
S3150800531001F01AFB4FF0000805464646FFF79CFFCA
S31508005320424F3C680CB16369A3B10022404B012E81
S315080053301A7003D118F0020F18BF1E70FFF7A6FFE8
S31508005340222802D1022000F0C3F82846BDE8F84317
S3150800535001F0F5BA23465A693AB91A792179914280
S3150800536088BF1C469B68002BF5D1284601F0E7FA52
S315080053702569DDB100F060F8A269A0EB02084FEAE2
S31508005380E873A84573F1000311DB23691344A3618D
S31508005390E36813B1204621689847B4F8068001F0FF
S315080053A0D3FA01360546FFF757FFBAE7A84601F0D4
S315080053B0CBFA81462046FFF731FF484601F0BFFA8F
S315080053C02369002BE4D0B5EB08054FEAE87363EBD5
S315080053D04303012D73F1000304DA40F247611548CF
S315080053E0FFF777F9A38B33B1E28B13449BB2B3F57E
S315080053F07A7F0FD2E38301F0A7FA80462946204632
S31508005400FFF7ECFEA369226940461344A36101F045
S3150800541096FABDE7A3F57A73E383A369013D013BD9
S31508005420A361E8E7BDE8F8836C0D0020640D002051
S315080054300E190020C476000808B5FFF727FE014BB1
S31508005440986908BD00800A5007B5044B01A9187968
S3150800545001F080FA019803B05DF804FB3475000882
S31508005460F8B5044601F067FA0746FFF70FFE154B35
S315080054709D6901F0D9FA06460020FFF74DFE83071D
S3150800548004D4731B032B01D8AE420FD10021631B32
S31508005490022B98BFEC1C0846B4F1FF3F2CBF2246EE
S315080054A0621EFFF75DFE022001F0C2FA384601F0DF
S315080054B03DFA054B1A7822B10121044A916400226B
S315080054C01A70F8BD00800A50101B002000900A5080
S315080054D0830700F0010106D50123044A41F00201C1
S315080054E01370034A93640020FFF7FABD101B0020CF
S315080054F000A00A50830742BF0222014B1A64704774
